{
  "_format": "hh-sol-artifact-1",
  "contractName": "merchent",
  "sourceName": "contracts/merchant.sol",
  "abi": [
    {
      "inputs": [],
      "stateMutability": "nonpayable",
      "type": "constructor"
    },
    {
      "anonymous": false,
      "inputs": [
        {
          "indexed": false,
          "internalType": "uint256",
          "name": "item_no",
          "type": "uint256"
        },
        {
          "indexed": false,
          "internalType": "uint256",
          "name": "quantity",
          "type": "uint256"
        },
        {
          "indexed": false,
          "internalType": "uint256",
          "name": "price",
          "type": "uint256"
        },
        {
          "indexed": false,
          "internalType": "address",
          "name": "item_owner",
          "type": "address"
        }
      ],
      "name": "item_logs",
      "type": "event"
    },
    {
      "inputs": [],
      "name": "admin",
      "outputs": [
        {
          "internalType": "address payable",
          "name": "",
          "type": "address"
        }
      ],
      "stateMutability": "view",
      "type": "function"
    },
    {
      "inputs": [
        {
          "internalType": "uint256",
          "name": "_item_no",
          "type": "uint256"
        }
      ],
      "name": "bid_start",
      "outputs": [],
      "stateMutability": "payable",
      "type": "function"
    },
    {
      "inputs": [
        {
          "internalType": "uint256",
          "name": "_item_no",
          "type": "uint256"
        },
        {
          "internalType": "address payable",
          "name": "winner",
          "type": "address"
        }
      ],
      "name": "bid_winners",
      "outputs": [],
      "stateMutability": "nonpayable",
      "type": "function"
    },
    {
      "inputs": [
        {
          "internalType": "uint256",
          "name": "_item_no",
          "type": "uint256"
        },
        {
          "internalType": "uint256",
          "name": "_quantity",
          "type": "uint256"
        }
      ],
      "name": "item_buy",
      "outputs": [],
      "stateMutability": "payable",
      "type": "function"
    },
    {
      "inputs": [
        {
          "internalType": "uint256",
          "name": "_item_no",
          "type": "uint256"
        },
        {
          "internalType": "uint256",
          "name": "_quantity",
          "type": "uint256"
        },
        {
          "internalType": "uint256",
          "name": "_price",
          "type": "uint256"
        },
        {
          "internalType": "address payable",
          "name": "owner",
          "type": "address"
        }
      ],
      "name": "item_listing",
      "outputs": [],
      "stateMutability": "nonpayable",
      "type": "function"
    },
    {
      "inputs": [
        {
          "internalType": "uint256",
          "name": "",
          "type": "uint256"
        }
      ],
      "name": "items",
      "outputs": [
        {
          "internalType": "uint256",
          "name": "item_no",
          "type": "uint256"
        },
        {
          "internalType": "uint256",
          "name": "quantity",
          "type": "uint256"
        },
        {
          "internalType": "address payable",
          "name": "item_owner",
          "type": "address"
        },
        {
          "internalType": "uint256",
          "name": "price",
          "type": "uint256"
        },
        {
          "internalType": "bool",
          "name": "exists",
          "type": "bool"
        },
        {
          "internalType": "uint256",
          "name": "received_amount",
          "type": "uint256"
        }
      ],
      "stateMutability": "view",
      "type": "function"
    },
    {
      "inputs": [],
      "name": "withdraw_funds",
      "outputs": [],
      "stateMutability": "nonpayable",
      "type": "function"
    }
  ],
  "bytecode": "0x60a060405234801561001057600080fd5b503373ffffffffffffffffffffffffffffffffffffffff1660808173ffffffffffffffffffffffffffffffffffffffff168152505060805161172a61007560003960008181610326015281816103b40152818161041d0152610c86015261172a6000f3fe6080604052600436106100705760003560e01c806362b7fdd41161004e57806362b7fdd4146100de57806394f98510146100fa578063bfb231d214610116578063f851a4401461015857610070565b806313928190146100755780632b8f20421461009e5780634c4b3a64146100b5575b600080fd5b34801561008157600080fd5b5061009c60048036038101906100979190610d41565b610183565b005b3480156100aa57600080fd5b506100b3610324565b005b3480156100c157600080fd5b506100dc60048036038101906100d79190610d81565b61041b565b005b6100f860048036038101906100f39190610de8565b610715565b005b610114600480360381019061010f9190610e28565b6109e5565b005b34801561012257600080fd5b5061013d60048036038101906101389190610e28565b610c1b565b60405161014f96959493929190610e8e565b60405180910390f35b34801561016457600080fd5b5061016d610c84565b60405161017a9190610eef565b60405180910390f35b600080838152602001908152602001600020600301546000808481526020019081526020016000206005015410156101f0576040517f08c379a00000000000000000000000000000000000000000000000000000000081526004016101e790610f67565b60405180910390fd5b60008083815260200190815260200160002060020160009054906101000a900473ffffffffffffffffffffffffffffffffffffffff1673ffffffffffffffffffffffffffffffffffffffff166108fc600080858152602001908152602001600020600301549081150290604051600060405180830381858888f19350505050158015610280573d6000803e3d6000fd5b507f4281e2fd1f4e4a62e9ff5cb234c6ab81eb082d132e126953f48c289da07e4a4582600160008086815260200190815260200160002060030154846040516102cc9493929190611021565b60405180910390a16000806000848152602001908152602001600020600101540361032057600080600084815260200190815260200160002060040160006101000a81548160ff0219169083151502179055505b5050565b7f000000000000000000000000000000000000000000000000000000000000000073ffffffffffffffffffffffffffffffffffffffff163373ffffffffffffffffffffffffffffffffffffffff16146103b2576040517f08c379a00000000000000000000000000000000000000000000000000000000081526004016103a9906110d8565b60405180910390fd5b7f000000000000000000000000000000000000000000000000000000000000000073ffffffffffffffffffffffffffffffffffffffff166108fc479081150290604051600060405180830381858888f19350505050158015610418573d6000803e3d6000fd5b50565b7f000000000000000000000000000000000000000000000000000000000000000073ffffffffffffffffffffffffffffffffffffffff163373ffffffffffffffffffffffffffffffffffffffff16146104a9576040517f08c379a00000000000000000000000000000000000000000000000000000000081526004016104a0906110d8565b60405180910390fd5b6000151560008086815260200190815260200160002060040160009054906101000a900460ff16151514610512576040517f08c379a000000000000000000000000000000000000000000000000000000000815260040161050990611144565b60405180910390fd5b60008311610555576040517f08c379a000000000000000000000000000000000000000000000000000000000815260040161054c906111d6565b60405180910390fd5b60008211610598576040517f08c379a000000000000000000000000000000000000000000000000000000000815260040161058f90611268565b60405180910390fd5b600160008086815260200190815260200160002060040160006101000a81548160ff0219169083151502179055506040518060c001604052808581526020018481526020018273ffffffffffffffffffffffffffffffffffffffff16815260200183815260200160008087815260200190815260200160002060040160009054906101000a900460ff16151581526020016000815250600080868152602001908152602001600020600082015181600001556020820151816001015560408201518160020160006101000a81548173ffffffffffffffffffffffffffffffffffffffff021916908373ffffffffffffffffffffffffffffffffffffffff1602179055506060820151816003015560808201518160040160006101000a81548160ff02191690831515021790555060a082015181600501559050507f4281e2fd1f4e4a62e9ff5cb234c6ab81eb082d132e126953f48c289da07e4a45848484846040516107079493929190611288565b60405180910390a150505050565b816001151560008083815260200190815260200160002060040160009054906101000a900460ff1615151461077f576040517f08c379a000000000000000000000000000000000000000000000000000000000815260040161077690611319565b60405180910390fd5b600080600083815260200190815260200160002060010154116107d7576040517f08c379a00000000000000000000000000000000000000000000000000000000081526004016107ce90611385565b60405180910390fd5b600082600080868152602001908152602001600020600301546107fa91906113d4565b9050600073ffffffffffffffffffffffffffffffffffffffff163373ffffffffffffffffffffffffffffffffffffffff160361086b576040517f08c379a000000000000000000000000000000000000000000000000000000000815260040161086290611462565b60405180910390fd5b803410156108ae576040517f08c379a00000000000000000000000000000000000000000000000000000000081526004016108a5906114ce565b60405180910390fd5b60008085815260200190815260200160002060020160009054906101000a900473ffffffffffffffffffffffffffffffffffffffff1673ffffffffffffffffffffffffffffffffffffffff166108fc349081150290604051600060405180830381858888f19350505050158015610929573d6000803e3d6000fd5b5082600080868152602001908152602001600020600101600082825461094f91906114ee565b925050819055507f4281e2fd1f4e4a62e9ff5cb234c6ab81eb082d132e126953f48c289da07e4a458484833360405161098b9493929190611543565b60405180910390a1600080600086815260200190815260200160002060010154036109df57600080600086815260200190815260200160002060040160006101000a81548160ff0219169083151502179055505b50505050565b806001151560008083815260200190815260200160002060040160009054906101000a900460ff16151514610a4f576040517f08c379a0000000000000000000000000000000000000000000000000000000008152600401610a4690611319565b60405180910390fd5b60008060008381526020019081526020016000206001015411610aa7576040517f08c379a0000000000000000000000000000000000000000000000000000000008152600401610a9e90611385565b60405180910390fd5b60006064603360008086815260200190815260200160002060030154610acd91906113d4565b610ad791906115b7565b9050600073ffffffffffffffffffffffffffffffffffffffff163373ffffffffffffffffffffffffffffffffffffffff1603610b48576040517f08c379a0000000000000000000000000000000000000000000000000000000008152600401610b3f90611634565b60405180910390fd5b80341015610b8b576040517f08c379a0000000000000000000000000000000000000000000000000000000008152600401610b82906116a0565b60405180910390fd5b346000808581526020019081526020016000206005016000828254610bb091906116c0565b92505081905550600080848152602001908152602001600020600301546000808581526020019081526020016000206005015410610c165760016000808581526020019081526020016000206001016000828254610c0e91906114ee565b925050819055505b505050565b60006020528060005260406000206000915090508060000154908060010154908060020160009054906101000a900473ffffffffffffffffffffffffffffffffffffffff16908060030154908060040160009054906101000a900460ff16908060050154905086565b7f000000000000000000000000000000000000000000000000000000000000000081565b600080fd5b6000819050919050565b610cc081610cad565b8114610ccb57600080fd5b50565b600081359050610cdd81610cb7565b92915050565b600073ffffffffffffffffffffffffffffffffffffffff82169050919050565b6000610d0e82610ce3565b9050919050565b610d1e81610d03565b8114610d2957600080fd5b50565b600081359050610d3b81610d15565b92915050565b60008060408385031215610d5857610d57610ca8565b5b6000610d6685828601610cce565b9250506020610d7785828601610d2c565b9150509250929050565b60008060008060808587031215610d9b57610d9a610ca8565b5b6000610da987828801610cce565b9450506020610dba87828801610cce565b9350506040610dcb87828801610cce565b9250506060610ddc87828801610d2c565b91505092959194509250565b60008060408385031215610dff57610dfe610ca8565b5b6000610e0d85828601610cce565b9250506020610e1e85828601610cce565b9150509250929050565b600060208284031215610e3e57610e3d610ca8565b5b6000610e4c84828501610cce565b91505092915050565b610e5e81610cad565b82525050565b610e6d81610d03565b82525050565b60008115159050919050565b610e8881610e73565b82525050565b600060c082019050610ea36000830189610e55565b610eb06020830188610e55565b610ebd6040830187610e64565b610eca6060830186610e55565b610ed76080830185610e7f565b610ee460a0830184610e55565b979650505050505050565b6000602082019050610f046000830184610e64565b92915050565b600082825260208201905092915050565b7f456e6f75676820636f6e747269627574696f6e20776173206e6f74206d616465600082015250565b6000610f51602083610f0a565b9150610f5c82610f1b565b602082019050919050565b60006020820190508181036000830152610f8081610f44565b9050919050565b6000819050919050565b6000819050919050565b6000610fb6610fb1610fac84610f87565b610f91565b610cad565b9050919050565b610fc681610f9b565b82525050565b6000610fe7610fe2610fdd84610ce3565b610f91565b610ce3565b9050919050565b6000610ff982610fcc565b9050919050565b600061100b82610fee565b9050919050565b61101b81611000565b82525050565b60006080820190506110366000830187610e55565b6110436020830186610fbd565b6110506040830185610e55565b61105d6060830184611012565b95945050505050565b7f4f6e6c79206f776e65722063616e2063616c6c20746869732066756e6374696f60008201527f6e00000000000000000000000000000000000000000000000000000000000000602082015250565b60006110c2602183610f0a565b91506110cd82611066565b604082019050919050565b600060208201905081810360008301526110f1816110b5565b9050919050565b7f546865206974656d206973206c697374656420616c7265616479000000000000600082015250565b600061112e601a83610f0a565b9150611139826110f8565b602082019050919050565b6000602082019050818103600083015261115d81611121565b9050919050565b7f5468656972206d7573742062652061746c65617374206f6e65206974656d207460008201527f6f206c6973740000000000000000000000000000000000000000000000000000602082015250565b60006111c0602683610f0a565b91506111cb82611164565b604082019050919050565b600060208201905081810360008301526111ef816111b3565b9050919050565b7f5468656972206d7573742062652061206d696e696d756d207072696365206f6660008201527f20746865206974656d0000000000000000000000000000000000000000000000602082015250565b6000611252602983610f0a565b915061125d826111f6565b604082019050919050565b6000602082019050818103600083015261128181611245565b9050919050565b600060808201905061129d6000830187610e55565b6112aa6020830186610e55565b6112b76040830185610e55565b6112c46060830184611012565b95945050505050565b7f4974656d20646f6573206e6f7420657869737473000000000000000000000000600082015250565b6000611303601483610f0a565b915061130e826112cd565b602082019050919050565b60006020820190508181036000830152611332816112f6565b9050919050565b7f5468656972206973206e6f7420656e6f756768207175616e7469747900000000600082015250565b600061136f601c83610f0a565b915061137a82611339565b602082019050919050565b6000602082019050818103600083015261139e81611362565b9050919050565b7f4e487b7100000000000000000000000000000000000000000000000000000000600052601160045260246000fd5b60006113df82610cad565b91506113ea83610cad565b92508282026113f881610cad565b9150828204841483151761140f5761140e6113a5565b5b5092915050565b7f5468652061646472657373206f6620627579657220697320696e76616c696400600082015250565b600061144c601f83610f0a565b915061145782611416565b602082019050919050565b6000602082019050818103600083015261147b8161143f565b9050919050565b7f54686520616d6f756e7420697320696e73756666696369656e74200000000000600082015250565b60006114b8601b83610f0a565b91506114c382611482565b602082019050919050565b600060208201905081810360008301526114e7816114ab565b9050919050565b60006114f982610cad565b915061150483610cad565b925082820390508181111561151c5761151b6113a5565b5b92915050565b600061152d82610ce3565b9050919050565b61153d81611522565b82525050565b60006080820190506115586000830187610e55565b6115656020830186610e55565b6115726040830185610e55565b61157f6060830184611534565b95945050505050565b7f4e487b7100000000000000000000000000000000000000000000000000000000600052601260045260246000fd5b60006115c282610cad565b91506115cd83610cad565b9250826115dd576115dc611588565b5b828204905092915050565b7f7573657220646f65736e27742065786973747300000000000000000000000000600082015250565b600061161e601383610f0a565b9150611629826115e8565b602082019050919050565b6000602082019050818103600083015261164d81611611565b9050919050565b7f416d6f756e7420696e73756666696369656e7400000000000000000000000000600082015250565b600061168a601383610f0a565b915061169582611654565b602082019050919050565b600060208201905081810360008301526116b98161167d565b9050919050565b60006116cb82610cad565b91506116d683610cad565b92508282019050808211156116ee576116ed6113a5565b5b9291505056fea264697066735822122014fbcc993bcec61ce4d81d21c955e1dc0b5c0c2ac2ef5fb9fe20b07ffb862c2b64736f6c63430008110033",
  "linkReferences": {},
  "deployedLinkReferences": {}
}